:020000040800F2
:1000000000300020110A0008C9070008CF070008C7
:10001000D5070008DB070008E10700080000000022
:10002000000000000000000000000000E7070008DA
:10003000F507000800000000030800081108000888
:10004000610A0008610A0008610A0008610A0008E4
:10005000610A0008610A0008610A0008610A0008D4
:10006000610A0008610A0008610A00081D0800080A
:10007000610A000831080008610A0008610A0008E6
:10008000610A0008610A000845080008610A0008C2
:10009000610A0008610A0008610A0008610A000894
:1000A000610A0008610A0008610A0008610A000884
:1000B000610A0008610A000800000000610A0008E7
:1000C000610A00080000000000000000610A00084A
:1000D00000000000610A0008610A0008610A0008C7
:1000E000610A0008610A000800000000000000002A
:1000F0000000000000000000000000000000000000
:1001000000000000000000000000000000000000EF
:100110000000000000000000610A0008610A0008F9
:1001200000000000000000000000000000000000CF
:1001300000000000000000000000000000000000BF
:10014000610A0008610A00080000000000000000C9
:10015000000000000000000000000000000000009F
:10016000000000000000000000000000000000008F
:10017000000000000000000000000000000000007F
:0801800000000000610A000804
:1001880010B5054C237833B9044B13B10448AFF3C9
:1001980000800123237010BD0C0000200000000027
:1001A800C85E000808B5034B1BB103490348AFF309
:1001B800008008BD0000000010000020C85E000894
:1001C80080B58AB000AF07F11C0300221A605A609C
:1001D8009A603B1D00221A605A609A60DA601A61C0
:1001E8005A612F4B4FF0A0421A602D4B4FF48032CA
:1001F8005A602B4B00229A60294B00221A61284B27
:1002080000225A76264B002283F82020244B4FF4F4
:100218008062DA62224B4FF450729A62204B0022BD
:10022800DA601F4B0122DA611D4B012283F830206E
:100238001B4B08225A611A4B00221A76184B0022CF
:100248005A63174800F084FC0346002B01D000F0E5
:1002580083FA0023FB6107F11C031946104801F0DB
:10026800DBFE0346002B01D000F076FA01237B6009
:100278000123BB6000233B610023FB6000237B61FB
:100288000023BB613B1D1946054801F089FA034666
:10029800002B01D000F060FA00BF2837BD4680BDB2
:1002A8002800002080B58AB000AF786007F11403F9
:1002B80000221A605A609A60DA601A617B681B68CB
:1002C800B3F1A04F54D12C4B5B692B4A43F08053B8
:1002D8005361294B5B6903F080533B613B69264BB3
:1002E8005B69254A43F400335361234B5B6903F48C
:1002F8000033FB60FB6801237B610323BB610023A0
:10030800FB6107F1140319464FF0904002F00AFF11
:100318001A4B1B4A1A60194B00225A60174B0022CD
:100328009A60164B8022DA60144B4FF400721A61FF
:10033800124B4FF400625A61104B20229A610F4B06
:100348000022DA610D4802F09FFC0346002B01D021
:1003580000F002FA7B68094A9A63084A7B6853628C
:1003680000220021122002F0C5F9122002F0EEF955
:1003780000BF2837BD4680BD00100240780000202D
:100388000800024080B584B000AF3B1D00221A600F
:100398005A609A600E4B0F4A1A600D4802F0FAF93B
:1003A8000346002B01D000F0D7F904237B6000231B
:1003B800BB603B1D00221946054802F01FFB03469F
:1003C800002B01D000F0C8F900BF1037BD4680BD32
:1003D800BC0000200074004080B58AB000AF78608F
:1003E80007F1140300221A605A609A60DA601A61F1
:1003F8007B681B682C4A934252D12C4BDB692B4AF1
:1004080043F00053D361294BDB6903F000533B6190
:100418003B69264B5B69254A43F400335361234B00
:100428005B6903F40033FB60FB6810237B610323E3
:10043800BB610023FB6107F1140319464FF090409C
:1004480002F070FE1A4B1B4A1A60194B10225A60B0
:10045800174B00229A60164B8022DA60144B4FF437
:1004680000721A61124B4FF400625A61104B20223D
:100478009A610F4B0022DA610D4802F005FC034631
:10048800002B01D000F068F90B4B1B680A4A43F4B3
:10049800005313607B68064A9A60054A7B6853627A
:1004A80000BF2837BD4680BD0074004000100240E0
:1004B800D0000020300002400000014080B582B02A
:1004C80000AF104B5B690F4A43F0010353610D4BBA
:1004D8005B6903F001037B607B68002200210B202D
:1004E80002F008F90B2002F031F9002200210D205A
:1004F80002F000F90D2002F029F900BF0837BD46C7
:1005080080BD00BF0010024080B588B000AF07F181
:100518000C0300221A605A609A60DA601A611D4B57
:100528005B691C4A43F4800353611A4B5B6903F40B
:100538008003BB60BB68174B5B69164A43F4003302
:100548005361144B5B6903F400337B607B68114B88
:100558005B69104A43F4802353610E4B5B6903F4D3
:1005680080233B603B6800221B210B4803F00CF8FA
:100578001B23FB6001233B6102237B610323BB61D7
:1005880007F10C031946044802F0CCFD00BF2037E0
:10059800BD4680BD001002400004004880B582B00E
:1005A80002AF00F05BFA00F035F8FFF7ADFFFFF798
:1005B80085FF00F0B5F9FFF703FE00F05BF9FFF7E0
:1005C800E1FE0D4804F096FD4FF480720B490C488B
:1005D80000F084FD002300934FF48073094A002142
:1005E800094802F023F9094B044A1A60084B054AE6
:1005F8001A6000F04BF8FCE71C09002014010020E9
:100608002800002014050020BC0000201409002048
:100618001809002080B590B000AF07F11803282210
:100628000021184605F044FC3B1D00221A605A6060
:100638009A60DA601A610223BB610123BB6210234E
:10064800FB6200237B6307F11803184602F0F4FFEE
:100658000346002B01D000F07FF80F237B600023B6
:10066800BB600023FB6000233B6100237B613B1DD3
:100678000021184604F094F90346002B01D000F03D
:100688006BF800BF4037BD4680BD000080B483B022
:1006980000AF01237B600EE00C4B1A687B689B005F
:1006A8001A440B4B19687B689B000B4412681A604C
:1006B8007B6801337B607B687F2BEDDD00BF00BF6B
:1006C8000C37BD465DF8047B704700BF1409002055
:1006D8001809002080B582B000AF78600221034875
:1006E80002F082FF00BF0837BD4680BD0004004805
:1006F80080B582B000AF7860064B074A1A60074B96
:10070800074A1A600121074802F06EFF00BF083748
:10071800BD4680BD140900201401002018090020DE
:10072800140700200004004880B483B000AF78604C
:10073800054B064A1A60064B064A1A6000BF0C377A
:10074800BD465DF8047B704714090020140300209F
:10075800180900201405002080B400AF72B600BF4D
:10076800FEE780B483B000AF7860396000BF0C3713
:10077800BD465DF8047B704780B483B000AF0F4B73
:100788009B690E4A43F0010393610C4B9B6903F08C
:1007980001037B607B68094BDB69084A43F080539F
:1007A800D361064BDB6903F080533B603B6800BFB5
:1007B8000C37BD465DF8047B704700BF001002404F
:1007C80080B400AFFEE780B400AFFEE780B400AFAE
:1007D800FEE780B400AFFEE780B400AFFEE780B468
:1007E80000AF00BFBD465DF8047B704780B400AF22
:1007F80000BFBD465DF8047B704780B400AF00BF02
:10080800BD465DF8047B704780B500AF00F06CF919
:1008180000BF80BD80B500AF024802F091FB00BF69
:1008280080BD00BF7800002080B500AF024802F00C
:1008380087FB00BF80BD00BFD000002080B500AF9F
:10084800024800F037FD00BF80BD00BF280000202F
:1008580080B400AF064BD3F88830054A43F47003E0
:10086800C2F8883000BFBD465DF8047B704700BF02
:1008780000ED00E080B584B000AF3B1D00221A6097
:100888005A609A60144B154A1A60134B00225A603A
:10089800114B00229A60104B4022DA600E4B8022E6
:1008A8009A610D4804F058FB0346002B01D0FFF76E
:1008B80053FF20237B600023FB603B1D194606483D
:1008C80004F018FD0346002B01D0FFF745FF00BFD9
:1008D8001037BD4680BD00BF1C0900200010004035
:1008E80080B485B000AF78607B681B680A4A934281
:1008F8000BD10A4BDB69094A43F01003D361074B5C
:10090800DB6903F01003FB60FB6800BF1437BD46CA
:100918005DF8047B704700BF0010004000100240E3
:1009280080B500AF144B154A1A60134B4FF41642AA
:100938005A60114B00229A600F4B0022DA600E4B6E
:1009480000221A610C4B0C225A610B4B00229A614F
:10095800094B0022DA61084B00221A62064B00227A
:100968005A62054804F0E6FD0346002B01D0FFF764
:10097800F3FE00BF80BD00BF6809002000440040AE
:1009880080B58AB000AF786007F1140300221A60BE
:100998005A609A60DA601A617B681B68184A934249
:1009A80029D1184BDB69174A43F40033D361154B3F
:1009B800DB6903F400333B613B69124B5B69114A05
:1009C80043F4003353610F4B5B6903F40033FB605E
:1009D800FB6848F204037B610223BB610023FB61CF
:1009E80003233B6207237B6207F1140319464FF088
:1009F800904002F097FB00BF2837BD4680BD00BF7E
:100A08000044004000100240DFF834D00D480E4981
:100A18000E4A002302E0D458C4500433C4188C4250
:100A2800F9D30B4A0B4C002301E013600432A242B5
:100A3800FBD3FFF70DFF05F017FAFFF7AFFDFEE751
:100A480000300020000000200C0000206861000831
:100A58000C000020F0090020FEE7000080B500AF80
:100A6800084B1B68074A43F010031360032001F08A
:100A780021FE002000F008F8FFF77EFE002318464C
:100A880080BD00BF0020024080B582B000AF786012
:100A9800124B1A68124B1B7819464FF47A73B3FB42
:100AA800F1F3B2FBF3F3184601F068FE0346002B9E
:100AB80001D001230EE07B680F2B0AD80022796849
:100AC8004FF0FF3001F016FE064A7B6813600023E2
:100AD80000E0012318460837BD4680BD000000200D
:100AE800080000200400002080B400AF064B1B78EB
:100AF8001A46064B1B681344044A136000BFBD46E0
:100B08005DF8047B704700BF08000020EC09002056
:100B180080B400AF034B1B681846BD465DF8047BE4
:100B2800704700BFEC09002080B483B000AF786044
:100B380000BF0C37BD465DF8047B704780B483B0B6
:100B480000AF786000BF0C37BD465DF8047B704786
:100B580080B59AB000AF7860002387F8673000232B
:100B68003B660023BB607B68002B01D10123AFE209
:100B78007B681B68B3F1A04F08D07B681B688C4A60
:100B8800934203D0F9218B48FFF7EBFD7B685B6844
:100B9800002B12D07B685B68B3F5803F0DD07B6873
:100BA8005B68B3F5003F08D07B685B68B3F5403FEE
:100BB80003D0FA217F48FFF7D4FD7B689B68002BA0
:100BC8000FD07B689B68082B0BD07B689B68102B29
:100BD80007D07B689B68182B03D0FB217548FFF76B
:100BE800C0FD7B68DB68002B07D07B68DB68202BA7
:100BF80003D0FC216F48FFF7B4FD7B681B69002B0D
:100C080007D07B681B69012B03D0FD216948FFF7DA
:100C1800A8FD7B685B7E002B07D07B685B7E012B81
:100C280003D0FE216348FFF79CFD7B68DB6A002B3D
:100C380012D07B68DB6AB3F5806F0DD07B68DB6A06
:100C4800B3F5006F08D07B68DB6AB3F5406F03D05B
:100C5800FF215848FFF785FD7B689B6A002B50D021
:100C68007B689B6A402B4CD07B689B6A802B48D062
:100C78007B689B6AC02B44D07B689B6AB3F5807FF6
:100C88003FD07B689B6AB3F5A07F3AD07B689B6AAC
:100C9800B3F5C07F35D07B689B6AB3F5E07F30D071
:100CA8007B689B6AB3F5007F2BD07B689B6AB3F5A2
:100CB800107F26D07B689B6AB3F5207F21D07B68A4
:100CC8009B6AB3F5307F1CD07B689B6AB3F5407F85
:100CD80017D07B689B6AB3F5507F12D07B689B6AFC
:100CE800B3F5607F0DD07B689B6AB3F5707F08D041
:100CF8007B689B6A012B04D04FF480712D48FFF765
:100D080030FD7B6893F83030002B09D07B6893F86E
:100D18003030012B04D040F201112648FFF721FDA5
:100D28007B685B69042B08D07B685B69082B04D05F
:100D38004FF481711F48FFF714FD7B685B6B012B33
:100D480008D07B685B6B002B04D040F20311194874
:100D5800FFF707FD7B681B7E002B08D07B681B7E96
:100D6800012B04D04FF482711248FFF7FAFC7B681C
:100D78001B69002B32D07B68DB69002B03D07B68B2
:100D8800DB69102B04D94FF484710A48FFF7E9FC9A
:100D98007B6893F82030002B0ED07B6893F82030C6
:100DA800012B09D040F209110248FFF7DAFC03E0F1
:100DB80000010050E05E00087B6893F82030002BAB
:100DC8000CD07B685B6A002B03D07B685B6A082BBE
:100DD80004D94FF486718048FFF7C3FC7B681B6C0D
:100DE80003F01003002B76D17B681B6C002B52D1CB
:100DF8007B6800225A647B680022DA647B680022E0
:100E08009A647B68002283F83C207868FFF74AFAE6
:100E18007B681B689B6803F08053002B3BD1786884
:100E280001F012FB034687F867307B681B6C03F000
:100E38001003002B2FD197F86730002B2BD17B683C
:100E48001B6C23F4885323F0020343F002027B68EF
:100E58001A647B681B689A687B681B6822F040529A
:100E68009A607B681B689A687B681B6842F08052AE
:100E78009A605A4B1B685A4AA2FB03239A0C1346E2
:100E88009B0013445B00BB6002E0BB68013BBB6096
:100E9800BB68002BF9D17B681B689B6803F0805303
:100EA800002B07D07B681B689B6803F00053B3F1E5
:100EB800005F10D17B681B6C23F0120343F0100213
:100EC8007B681A647B685B6C43F001027B685A6438
:100ED800012387F867307B681B6C03F01003002B35
:100EE80040F0E98097F86730002B40F0E4807B6899
:100EF8001B689B6803F00403002B40F0DC807B68D0
:100F08001B6C23F4817343F002027B681A64354B2F
:100F1800FB657B681B68B3F1A04F02D1324BFB60C5
:100F280002E04FF0A043FB607B681B689B6803F0FE
:100F38000303012B08D17B681B681B6803F00103BE
:100F4800012B01D1012300E00023002B1CD1FB68F9
:100F5800002B10D0FB689B6803F00303012B07D11B
:100F6800FB681B6803F00103012B01D1012300E09A
:100F78000023002B08D1FB6D9B6823F440327B686B
:100F88005B681A43FB6D9A607B685B7E5B037A68DB
:100F9800526B012A02D04FF4805200E000221A431B
:100FA8007B68DB681A437B689B6813433A6E13437C
:100FB8003B667B6893F82030012B25D17B685B7EEC
:100FC800002B13D17B685B6A013B5A043B6E1343C9
:100FD80043F480333B6617E0E05E00080000002021
:100FE80083DE1B4300030050000100507B681B6C2C
:100FF80023F0220343F020027B681A647B685B6C51
:1010080043F001027B685A647B689B6A012B07D016
:101018007B689A6A7B68DB6A13433A6E13433B66C4
:101028007B681B689B6803F00C03002B14D17B685A
:101038001B68DB687A68126823F4804323F0020394
:10104800D3607B681B7E9A037B6893F830305B0023
:1010580013433A6E13433B667B681B68DA681E4B82
:1010680013407A681268396E0B43D3607B681B693A
:10107800012B0CD17B681B681B6B23F00F017B686D
:10108800DB695A1E7B681B680A431A6307E07B68A2
:101098001B681A6B7B681B6822F00F021A637B6857
:1010A80000225A647B681B6C23F0030343F001029F
:1010B8007B681A640AE07B681B6C23F0120343F018
:1010C80010027B681A64012387F8673097F8673045
:1010D80018466837BD4680BD07C0F0FF80B586B0AA
:1010E80000AFF860B9607A600023FB75FB681B6885
:1010F800B3F1A04F09D0FB681B68684A934204D03B
:1011080040F662116648FFF72CFBFB681B689B687A
:1011180003F00403002B40F0B980FB6893F83C30DF
:10112800012B01D10223B4E0FB68012283F83C20A3
:101138005C4B9B6803F01F03002B40F0A080F8680D
:1011480001F01EF90346FB75FB7D002B40F09280F1
:10115800FB681B6C23F4706323F0010343F4807273
:10116800FB681A644F4B9B6803F01F03002B04D0E5
:10117800FB681B68B3F1A04F15D1FB681B6C23F407
:101188008012FB681A64FB681B68DB6803F0007355
:10119800002B27D0FB681B6C23F4405343F4805288
:1011A800FB681A641EE0FB681B6C43F48012FB6842
:1011B8001A64FB681B68B3F1A04F04D0FB681B6876
:1011C800364A93420ED14FF0A043DB6803F0007318
:1011D800002B07D0FB681B6C23F4405343F4805268
:1011E800FB681A64FB681B6C03F48053B3F5805FDB
:1011F80006D1FB685B6C23F00602FB685A6402E0C8
:10120800FB6800225A64FB68002283F83C20FB68D4
:101218009B6B254A9A62FB689B6B244ADA62FB68DF
:101228009B6B234A1A63FB681B681C221A60FB68C5
:101238001B685A68FB681B6842F010025A60FB681A
:101248001B68DA68FB681B6842F00102DA60FB6819
:10125800986BFB681B6840331946BA687B6801F0D5
:1012680001FEFB681B689A68FB681B6842F0040271
:101278009A600DE0FB68002283F83C2008E0012317
:10128800FB75FB68002283F83C2001E00223FB7514
:10129800FB7D18461837BD4680BD00BF00010050D1
:1012A800E05E000800030050BD2200083723000854
:1012B8005323000880B586B000AF786000237B61B7
:1012C80000233B610023FB607B681B68B3F1A04FE0
:1012D80009D07B681B68794A934204D040F64731AD
:1012E8007748FFF73EFA7B685B7E002B08D07B6867
:1012F8005B7E012B04D040F648317148FFF731FA84
:101308007B685B69042B08D07B685B69082B04D079
:1013180040F649316A48FFF724FA7B681B681B6866
:1013280003F00403042B06D17B681B685B6803F099
:101338000403042B0DD07B681B681B6803F00803AB
:10134800082B7AD17B681B685B6803F00803082BBD
:1013580073D17B681B6C03F01003002B05D17B68ED
:101368001B6C43F400727B681A64564B9B6803F04D
:101378001F03002B10D0534B9B6803F01F03052B52
:101388000AD0504B9B6803F01F03092B04D07B68DD
:101398001B68B3F1A04F04D17B681B68DB683B6115
:1013A80003E04FF0A043DB683B617B681B68DB68A8
:1013B80003F44063002B39D13B6903F40053002B3D
:1013C80034D17B681B681B6803F00803082B2DD1F8
:1013D8007B681B689B6803F00403002B1AD17B68A9
:1013E8001B685A687B681B6822F00C025A607B688D
:1013F8001B6C23F480727B681A647B681B6C03F493
:101408008053002B12D17B681B6C43F001027B6870
:101418001A640BE07B681B6C43F010027B681A644B
:101428007B685B6C43F001027B685A647868FFF75D
:101438005FF97B681B680C221A607B681B681B6855
:1014480003F02003202B06D17B681B685B6803F040
:101458002003202B0FD07B681B681B6803F0400318
:10146800402B40F0AE807B681B685B6803F040034C
:10147800402B40F0A6807B681B6C43F400527B68CD
:101488001A64104B9B6803F01F03002B10D00D4B00
:101498009B6803F01F03052B0AD00A4B9B6803F0D7
:1014A8001F03092B04D07B681B68B3F1A04F0BD135
:1014B8007B681B68DB683B610AE000BF00010050E5
:1014C800E05E0008000300504FF0A043DB683B617A
:1014D8007B681B68DB6C03F0C003002B6AD13B6997
:1014E80003F00073002B0BD07B681B68DB6803F4E8
:1014F8004063002B5ED13B6903F40053002B59D1A4
:101508007B681B681B6803F04003402B52D18F4B4C
:101518009B6803F01F03002B10D08C4B9B6803F0D3
:101528001F03062B0AD0894B9B6803F01F03072B68
:1015380004D07B681B68B3F1A04F04D17B681B689B
:10154800DB68FB6003E04FF0A043DB68FB60FB68EF
:1015580003F40013002B2DD17B681B689B6803F0F4
:101568000803002B1AD17B681B685A687B681B68C4
:1015780022F060025A607B681B6C23F480527B68FF
:101588001A647B681B6C03F48073002B12D17B6890
:101598001B6C43F001027B681A640BE07B681B6CD0
:1015A80043F010027B681A647B685B6C43F00102AD
:1015B8007B685A64786800F0CBF87B681B68602207
:1015C8001A607B681B681B6803F08003802B13D1AB
:1015D8007B681B685B6803F08003802B0CD17B68F9
:1015E8001B6C43F480327B681A647868FFF79CFAB6
:1015F8007B681B6880221A607B681B681B6803F481
:101608008073B3F5807F15D17B681B685B6803F432
:101618008073B3F5807F0DD17B681B6C43F4003277
:101628007B681A64786800F0A7F87B681B684FF439
:1016380080721A607B681B681B6803F40073B3F53B
:10164800007F15D17B681B685B6803F40073B3F5F2
:10165800007F0DD17B681B6C43F480227B681A6481
:10166800786800F093F87B681B684FF400721A6082
:101678007B681B681B6803F01003102B3DD17B6847
:101688001B685B6803F01003102B36D17B685B6B1B
:10169800012B02D101237B6119E02C4BBB60BB6895
:1016A8009B6803F01F03002B09D17B681B68DB686C
:1016B80003F00103012B0AD101237B6107E0BB681A
:1016C8009B6803F44043002B01D001237B617B69B5
:1016D800012B0ED17B681B6C43F480627B681A6413
:1016E8007B685B6C43F002027B685A647868FFF79A
:1016F80025FA7B681B6810221A607B681B681B68C8
:1017080003F48063B3F5806F1BD17B681B685B684B
:1017180003F48063B3F5806F13D17B681B6C43F4CB
:1017280080427B681A647B685B6C43F008027B68C4
:101738005A647B681B684FF480621A60786800F00E
:1017480011F800BF1837BD4680BD00BF0003005028
:1017580080B483B000AF786000BF0C37BD465DF839
:10176800047B704780B483B000AF786000BF0C374B
:10177800BD465DF8047B704780B483B000AF7860E5
:1017880000BF0C37BD465DF8047B704780B483B05A
:1017980000AF786000BF0C37BD465DF8047B70472A
:1017A80080B59AB000AF78603960002387F8673059
:1017B8000023BB607B681B68B3F1A04F09D07B682E
:1017C8001B68664A934204D041F2B7516448FEF759
:1017D800C8FF3B685B68012B40D03B685B68022B05
:1017E8003CD03B685B68032B38D03B685B68042BB4
:1017F80034D03B685B68052B30D03B685B68062BB0
:101808002CD03B685B68072B28D03B685B68082BAB
:1018180024D03B685B68092B20D03B685B680A2BA7
:101828001CD03B685B680B2B18D03B685B680C2BA3
:1018380014D03B685B680D2B10D03B685B680E2B9F
:101848000CD03B685B680F2B08D03B685B68102B9B
:1018580004D041F2B8514248FEF783FF3B689B68C9
:10186800002B20D03B689B68012B1CD03B689B68F1
:10187800022B18D03B689B68032B14D03B689B68ED
:10188800042B10D03B689B68052B0CD03B689B68E9
:10189800062B08D03B689B68072B04D041F2B9514E
:1018A8002F48FEF75EFF3B68DB68002B08D03B68DB
:1018B800DB68012B04D041F2BA512948FEF751FFE9
:1018C8003B681B69002B14D03B681B69012B10D0A7
:1018D8003B681B69022B0CD03B681B69032B08D0A3
:1018E8003B681B69042B04D041F2BB511C48FEF72E
:1018F80038FF7B681B68DB6803F01803002B04D1F2
:101908003B685B69B3F5805F2CD37B681B68DB6839
:1019180003F01803082B04D13B685B69B3F5806FAB
:1019280020D37B681B68DB6803F01803102B03D1F6
:101938003B685B69FF2B15D97B681B68DB6803F084
:101948001803182B03D13B685B693F2B0AD941F276
:10195800BC510348FEF705FF04E000BF000100503A
:10196800E05E00083B68DB68012B63D03B681B68BE
:10197800012B00F09C803B681B68022B00F09780CD
:101988003B681B68032B00F092803B681B68042BA4
:1019980000F08D803B681B68052B00F088803B6851
:1019A8001B68062B00F083803B681B68072B7ED0E2
:1019B8003B681B68082B7AD03B681B68092B76D0DC
:1019C8003B681B680A2B72D03B681B680B2B6ED0D8
:1019D8003B681B680C2B6AD03B681B680D2B66D0D4
:1019E8003B681B680E2B62D03B681B680F2B5ED0D0
:1019F8003B681B68102B5AD03B681B68112B56D0CC
:101A08003B681B68122B52D03B681B680F2B4ED0CB
:101A18003B681B68112B4AD03B681B68112B46D0CA
:101A28003B681B68112B42D041F2C4519B48FEF71A
:101A380098FE3CE03B681B68012B38D03B681B686C
:101A4800022B34D03B681B68032B30D03B681B68E3
:101A5800042B2CD03B681B68052B28D03B681B68DF
:101A6800062B24D03B681B68072B20D03B681B68DB
:101A7800082B1CD03B681B68092B18D03B681B68D7
:101A88000A2B14D03B681B680B2B10D03B681B68D3
:101A98000C2B0CD03B681B680D2B08D03B681B68CF
:101AA8000E2B04D041F2C8517C48FEF75AFE7B68E1
:101AB80093F83C30012B01D10223A5E27B68012277
:101AC80083F83C207B681B689B6803F00403002BA9
:101AD80040F089823B685B68042B1CD87B681B68D4
:101AE800196B3B685A6813465B0013445B001A463F
:101AF8001F239340DB4319403B6818683B685A68CA
:101B080013465B0013445B0000FA03F27B681B6812
:101B18000A431A6363E03B685B68092B1ED87B683D
:101B28001B68596B3B685A6813465B0013445B009B
:101B38001E3B1F2202FA03F3DB4319403B68186877
:101B48003B685A6813465B0013445B001E3B00FA6F
:101B580003F27B681B680A435A6340E03B685B6892
:101B68000E2B1ED87B681B68996B3B685A68134616
:101B78005B0013445B003C3B1F2202FA03F3DB4388
:101B880019403B6818683B685A6813465B00134461
:101B98005B003C3B00FA03F27B681B680A439A63CC
:101BA8001DE07B681B68D96B3B685A6813465B006D
:101BB80013445B005A3B1F2202FA03F3DB4319402C
:101BC8003B6818683B685A6813465B0013445B001F
:101BD8005A3B00FA03F27B681B680A43DA637B68A6
:101BE8001B689B6803F00C03002B40F0E6803B6801
:101BF8001B68092B1CD97B681B6899693B681A68A4
:101C080013465B0013441E3B072202FA03F3DB432F
:101C180019403B6898683B681A6813465B00134490
:101C28001E3B00FA03F27B681B680A439A6119E0BD
:101C38007B681B6859693B681A6813465B00134444
:101C4800072202FA03F3DB4319403B6898683B68B4
:101C58001A6813465B00134400FA03F27B681B689A
:101C68000A435A613B685A697B681B68DB68DB0872
:101C780003F003035B0002FA03F33B663B681B694E
:101C8800013B032B50D801A252F823F0A91C0008ED
:101C9800CB1C0008ED1C00080F1D0008E05E0008C2
:101CA8007B681B681A6E944B13403A681268910659
:101CB8003A6E0A431A437B681B6842F000421A6670
:101CC8007EE07B681B685A6E8B4B13403A6812683B
:101CD80091063A6E0A431A437B681B6842F0004239
:101CE8005A666DE07B681B689A6E834B13403A68AE
:101CF800126891063A6E0A431A437B681B6842F0E1
:101D080000429A665CE07B681B68DA6E7A4B134087
:101D18003A68126891063A6E0A431A437B681B6850
:101D280042F00042DA664BE07B681B681B6E03F0EA
:101D3800F8423B681B689B069A4207D17B681B6880
:101D48001A6E7B681B6822F000421A667B681B6863
:101D58005B6E03F0F8423B681B689B069A4207D10A
:101D68007B681B685A6E7B681B6822F000425A66C3
:101D78007B681B689B6E03F0F8423B681B689B06F8
:101D88009A4207D17B681B689A6E7B681B6822F0B1
:101D980000429A667B681B68DB6E03F0F8423B687A
:101DA8001B689B069A420AD17B681B68DA6E7B68BF
:101DB8001B6822F00042DA6601E000BF00E000BFC5
:101DC8007B681B689B6803F00303012B08D17B68C1
:101DD8001B681B6803F00103012B01D1012300E0FC
:101DE8000023002B40F00A813B68DB68012B0FD0F1
:101DF8007B681B68D3F8B0103B681B68012202FAA5
:101E080003F3DA437B681B680A40C3F8B02049E053
:101E18007B681B68D3F8B0103B681B6801229A40A6
:101E28007B681B680A43C3F8B0203B681B68092B12
:101E38001CD97B681B6899693B681A6813465B0064
:101E480013441B3B072202FA03F3DB4319403B68A8
:101E580098683B681A6813465B0013441B3B00FAFA
:101E680003F27B681B680A439A611BE07B681B6866
:101E780059693B681B685A1C13465B0013440722C8
:101E880002FA03F3DB4319403B6898683B681B6818
:101E98005A1C13465B00134400FA03F27B681B6864
:101EA8000A435A61154BFB653B681B68102B05D12B
:101EB800FB6D9B6803F40003002B15D03B681B687F
:101EC800112B05D1FB6D9B6803F08073002B0BD0A1
:101ED8003B681B68122B40F09180FB6D9B6803F4F4
:101EE8008003002B40F08A807B681B68B3F1A04F09
:101EF80008D1034BFB6008E000F0FF8300030050AB
:101F0800000100504FF0A043FB607B681B689B6892
:101F180003F00303012B08D17B681B681B6803F0DF
:101F28000103012B01D1012300E00023002B50D134
:101F3800FB68002B10D0FB689B6803F00303012BA0
:101F480007D1FB681B6803F00103012B01D10123B2
:101F580000E00023002B3CD13B681B68102B1DD1EF
:101F68007B681B68B3F1A04F18D1FB6D9B6843F4E5
:101F78000002FB6D9A60264B1B68264AA2FB0323CE
:101F88009A0C13469B0013445B00BB6002E0BB68DD
:101F9800013BBB60BB68002BF9D12EE03B681B6896
:101FA800112B0BD17B681B68B3F1A04F06D1FB6DD9
:101FB8009B6843F08072FB6D9A601EE03B681B686B
:101FC800122B1AD1FB6D9B6843F48002FB6D9A605B
:101FD80013E07B681B6C43F020027B681A640123C2
:101FE80087F867300AE07B681B6C43F020027B6847
:101FF8001A64012387F8673000E000BF7B6800227D
:1020080083F83C2097F8673018466837BD4680BD8E
:102018000000002083DE1B4380B598B000AF7860D5
:102028003960002387F85F307B681B68B3F1A04FE5
:1020380004D041F694319148FEF793FB3B681B6846
:10204800002B20D03B681B68012B1CD03B681B6809
:10205800022B18D03B681B68032B14D03B681B6805
:10206800052B10D03B681B68062B0CD03B681B68FF
:10207800072B08D03B681B68092B04D041F6953123
:102088007E48FEF76EFB3B681B68002B52D03B680E
:102098005B68002B0ED03B685B68B3F5004F09D036
:1020A8003B685B68B3F5404F04D041F698317348FC
:1020B800FEF757FB3B689B68002B3BD03B689B684F
:1020C800B3F5807F36D03B689B68B3F5007F31D08D
:1020D8003B689B68B3F5407F2CD03B689B68B3F5A1
:1020E800806F27D03B689B68B3F5A06F22D03B6810
:1020F8009B68B3F5C06F1DD03B689B68B3F5E06F74
:1021080018D03B689B68B3F5006F13D03B689B6899
:10211800B3F5106F0ED03B689B68B3F5206F09D0FC
:102128003B689B68B3F5306F04D041F6993153484A
:10213800FEF717FB7B681B68B3F1A04F02D1504B29
:10214800BB6002E04FF0A043BB60BB68002B01D12D
:102158000123AAE07B6893F83C30012B01D10223CC
:10216800A3E07B68012283F83C207B681B689B689E
:1021780003F00403002B40F08780BB689B6803F0E2
:102188000403002B40F080803E4BBB653B681B6816
:10219800002B40D0BB6D9B6823F460423B685968B4
:1021A8007B6893F830305B030B431A43BB6D9A602E
:1021B8007B681B689B6803F00303012B08D17B68CD
:1021C8001B681B6803F00103012B01D1012300E008
:1021D8000023002B62D1BB689B6803F00303012B2B
:1021E80007D1BB681B6803F00103012B01D1012350
:1021F80000E00023002B51D1BB6D9B6823F4716371
:1022080023F00F033A6811683A6892680A431A4340
:10221800BB6D9A6042E0BB6D9B6823F46042BB6D66
:102228009A607B681B689B6803F00303012B08D145
:102238007B681B681B6803F00103012B01D1012394
:1022480000E00023002B29D1BB689B6803F003033F
:10225800012B07D1BB681B6803F00103012B01D1D7
:10226800012300E00023002B18D1BB6D9B6823F4E9
:10227800716323F00F03BA6D93600FE0E05E00080E
:1022880000010050000300507B681B6C43F02002E3
:102298007B681A64012387F85F3000E000BF7B6821
:1022A800002283F83C2097F85F3018466037BD4617
:1022B80080BD00BF80B584B000AF78607B685B6A82
:1022C800FB60FB681B6C03F05003002B26D1FB68F6
:1022D8001B6C43F40072FB681A64FB681B68DB68BC
:1022E80003F44063002B15D1FB685B7E002B11D1F2
:1022F800FB681B6C23F48072FB681A64FB681B6C18
:1023080003F48053002B05D1FB681B6C43F00102DA
:10231800FB681A64F868FEF7EBF904E0FB689B6B4E
:102328001B6B7868984700BF1037BD4680BD80B5E5
:1023380084B000AF78607B685B6AFB60F868FEF782
:10234800F3F900BF1037BD4680BD80B584B000AF3B
:1023580078607B685B6AFB60FB681B6C43F040023B
:10236800FB681A64FB685B6C43F00402FB685A6400
:10237800F868FEF7E3FB00BF1037BD4680BD0000DC
:1023880080B584B000AF78600023FB607B681B6871
:102398009B6803F00303012B08D17B681B681B684B
:1023A80003F00103012B01D1012300E00023002BDE
:1023B80043D17B681B689A68224B1340002B0DD0D1
:1023C8007B681B6C43F010027B681A647B685B6C4B
:1023D80043F001027B685A6401232FE07B681B6885
:1023E8009A687B681B6842F001029A60FEF790FBCE
:1023F800F8601BE0FEF78CFB0246FB68D31A022B41
:1024080014D97B681B681B6803F00103012B0DD0EE
:102418007B681B6C43F010027B681A647B685B6CFA
:1024280043F001027B685A64012307E07B681B685C
:102438001B6803F00103012BDCD100231846103779
:10244800BD4680BD3F00008080B584B000AF786095
:102458000023FB607B681B689B6803F00303012B68
:1024680008D17B681B681B6803F00103012B01D1AD
:10247800012300E00023002B47D07B681B689B6882
:1024880003F00D03012B0FD17B681B689A687B68EA
:102498001B6842F002029A607B681B6803221A607C
:1024A800FEF736FBF86029E07B681B6C43F01002EE
:1024B8007B681A647B685B6C43F001027B685A6432
:1024C800012323E0FEF724FB0246FB68D31A022B04
:1024D80014D97B681B689B6803F00103012B0DD19D
:1024E8007B681B6C43F010027B681A647B685B6C2A
:1024F80043F001027B685A64012307E07B681B688C
:102508009B6803F00103012BDCD000231846103729
:10251800BD4680BD80B485B000AF78607B6803F0AD
:102528000703FB600C4BDB68BB60BA684FF6FF0320
:102538001340BB60FB681A02BB68134343F0BF63D8
:1025480043F40033BB60044ABB68D36000BF143750
:10255800BD465DF8047B704700ED00E080B400AF35
:10256800044BDB681B0A03F007031846BD465DF8F9
:10257800047B704700ED00E080B483B000AF0346F1
:10258800FB7197F90730002B0BDBFB7903F01F0277
:10259800074997F907305B09012000FA02F241F870
:1025A800232000BF0C37BD465DF8047B704700BF91
:1025B80000E100E080B483B000AF03463960FB71EE
:1025C80097F90730002B0ADB3B68DAB20C4997F918
:1025D80007301201D2B20B4483F800230AE03B68AB
:1025E800DAB20849FB7903F00F03043B1201D2B2B7
:1025F8000B441A7600BF0C37BD465DF8047B704764
:1026080000E100E000ED00E080B489B000AFF860C0
:10261800B9607A60FB6803F00703FB61FB69C3F1EB
:102628000703042B28BF0423BB61FB690433062B73
:1026380002D9FB69033B00E000237B614FF0FF32C6
:10264800BB6902FA03F3DA43BB681A407B699A4014
:102658004FF0FF317B6901FA03F3D9437B680B40E4
:10266800134318462437BD465DF8047B70470000C5
:1026780080B582B000AF78607B68013BB3F1807FA2
:1026880001D301230FE00A4A7B68013B53600F2105
:102698004FF0FF30FFF78EFF054B00229A60044B86
:1026A80007221A60002318460837BD4680BD00BFC0
:1026B80010E000E080B582B000AF78607B68072B3F
:1026C8000FD07B68062B0CD07B68052B09D07B6864
:1026D800042B06D07B68032B03D0AC210448FEF7FB
:1026E80040F87868FFF716FF00BF0837BD4680BD81
:1026F8001C5F000880B586B000AF0346B9607A60F9
:10270800FB7300237B617B680F2B03D9C4210E4820
:10271800FEF727F8BB680F2B03D9C5210A48FEF737
:1027280020F8FFF71BFF78617A68B9687869FFF7C6
:102738006BFF024697F90F3011461846FFF73AFF2C
:1027480000BF1837BD4680BD1C5F000880B582B049
:1027580000AF0346FB7197F90730002B03DAD82145
:102768000548FDF7FEFF97F907301846FFF704FF05
:1027780000BF0837BD4680BD1C5F000880B582B029
:1027880000AF78607868FFF773FF0346184608378C
:10279800BD4680BD80B582B000AF78607B68002BF5
:1027A80001D1012323E07B681B68134A934209D0B7
:1027B8007B681B68114A934204D04FF4A4711048F7
:1027C800FDF7CFFF7B681B79DBB2002B05D17B6857
:1027D80000225A717868FDF7FFFD7B6802221A71A2
:1027E8007B6800221A617B6801221A71002318464F
:1027F8000837BD4680BD00BF007400400098004007
:10280800585F000880B483B000AF786000BF0C3711
:10281800BD465DF8047B704780B483B000AF786034
:1028280000BF0C37BD465DF8047B704780B586B0A5
:1028380000AFF860B9607A603B6000237B61FB6899
:102848001B68654A934205D1BB68002B0FD0BB6853
:10285800102B0CD0FB681B68604A934202D1BB68FE
:10286800002B04D040F26D115D48FDF77AFF3B6AFA
:10287800002B0AD03B6A042B07D03B6A082B04D0F4
:102888004FF4B7715648FDF76CFFFB685B79012B75
:1028980001D102239BE0FB6801225A71FB680222E6
:1028A8001A71BB68002B2FD1FB689B684D4A9A624E
:1028B800FB689B684C4ADA62FB689B684B4A1A6360
:1028C800FB681B681A68FB681B6842F480521A6030
:1028D8003B6A082B13D03B6A082B45D83B6A002B70
:1028E80003D03B6A042B05D03EE0FB681B68083325
:1028F8007B613CE0FB681B680C337B6137E0FB685D
:102908001B6810337B6132E0FB68DB68384A9A62E7
:10291800FB68DB68374ADA62FB68DB68364A1A63A9
:10292800FB681B681A68FB681B6842F080521A60D3
:102938003B6A082B13D03B6A082B17D83B6A002B3D
:1029480003D03B6A042B05D010E0FB681B681433E6
:102958007B610CE0FB681B6818337B6107E0FB6850
:102968001B681C337B6102E000BF00E000BFBB684E
:10297800002B0FD1FB681B681A68FB681B6842F4C0
:1029880000521A60FB68986879683B687A6900F0B9
:1029980069FA0EE0FB681B681A68FB681B6842F05E
:1029A80000521A60FB68D86879683B687A6900F059
:1029B80059FAFB6800225A71FB681B6819680122E2
:1029C800BB689A40FB681B680A431A6000231846D4
:1029D8001837BD4680BD00BF007400400098004015
:1029E800905F0008B92B0008DB2B0008F72B0008C4
:1029F800252C0008472C0008632C000880B586B0F9
:102A080000AFF860B9607A6000237B6100233B6106
:102A1800BB681B68002B20D0BB681B68242B1CD00C
:102A2800BB681B680C2B18D0BB681B681C2B14D008
:102A3800BB681B68042B10D0BB681B68142B0CD018
:102A4800BB681B68342B08D0BB681B683C2B04D0C0
:102A58004FF442714548FDF784FEFB681B68444A01
:102A6800934210D17B68002B0DD1BB685B68002BAB
:102A780017D0BB685B68022B13D040F20E313B487D
:102A8800FDF76FFE0DE0BB689B68002B0AD0BB68A2
:102A98009B68022B06D040F213313448FDF761FEE3
:102AA80000E000BF7B68002B07D07B68102B04D0A8
:102AB8004FF446712D48FDF754FEFB685B79012BF6
:102AC80001D102234EE0FB6801225A71FB68022201
:102AD8001A71FB681B681B687B61FB681B68244ACA
:102AE800934212D17B68002B0FD140F6FE727B68AF
:102AF80002FA03F3DB437A6913407B61BB681A6807
:102B0800BB685B6813433B610EE040F6FE727B686E
:102B180002FA03F3DB437A6913407B61BB681A68E6
:102B2800BB689B6813433B613A697B6802FA03F30D
:102B38007A6913437B61FB681B687A691A60FB68D2
:102B48001B681968C0227B6802FA03F3DA43FB6842
:102B58001B680A401A60FB6801221A71FB68002290
:102B68005A71002318461837BD4680BD905F00088B
:102B78000074004080B483B000AF786000BF0C37A9
:102B8800BD465DF8047B704780B483B000AF7860C1
:102B980000BF0C37BD465DF8047B704780B483B036
:102BA80000AF786000BF0C37BD465DF8047B704706
:102BB80080B584B000AF78607B685B6AFB60F868BA
:102BC800FDF788FDFB6801221A7100BF1037BD466A
:102BD80080BD80B584B000AF78607B685B6AFB60BD
:102BE800F868FFF70FFE00BF1037BD4680BD80B5FF
:102BF80084B000AF78607B685B6AFB60FB681B6928
:102C080043F00402FB681A61F868FFF705FEFB68E9
:102C180001221A7100BF1037BD4680BD80B584B04F
:102C280000AF78607B685B6AFB60F868FFF7A2FF1B
:102C3800FB6801221A7100BF1037BD4680BD80B500
:102C480084B000AF78607B685B6AFB60F868FFF768
:102C58009BFF00BF1037BD4680BD80B584B000AF74
:102C680078607B685B6AFB60FB681B6943F0040261
:102C7800FB681A61F868FFF791FFFB6801221A7177
:102C880000BF1037BD4680BD80B584B000AF786006
:102C98000023FB607B68002B01D10123CEE07B6819
:102CA8001B68684A934221D07B681B68664A934236
:102CB8001CD07B681B68654A934217D07B681B68E9
:102CC800634A934212D07B681B68624A93420DD0D4
:102CD8007B681B68604A934208D07B681B685F4A20
:102CE800934203D094215E48FDF73BFD7B685B6807
:102CF800002B0CD07B685B68102B08D07B685B6866
:102D0800B3F5804F03D095215548FDF72AFD7B6820
:102D18009B68402B07D07B689B68002B03D09621CB
:102D28004F48FDF71EFD7B68DB68802B07D07B686A
:102D3800DB68002B03D097214948FDF712FD7B681B
:102D48001B69002B0DD07B681B69B3F5807F08D009
:102D58007B681B69B3F5007F03D098214048FDF7D5
:102D680000FD7B685B69002B0DD07B685B69B3F560
:102D7800806F08D07B685B69B3F5006F03D0992139
:102D88003748FDF7EEFC7B689B69002B07D07B6812
:102D98009B69202B03D09A213148FDF7E2FC7B6820
:102DA800DB69002B12D07B68DB69B3F5805F0DD03F
:102DB8007B68DB69B3F5005F08D07B68DB69B3F536
:102DC800405F03D09B212648FDF7CBFC7B6802229D
:102DD80083F821207B681B681B68FB60FB6823F471
:102DE8007F5323F03003FB607B685A687B689B68DD
:102DF8001A437B68DB681A437B681B691A437B6844
:102E08005B691A437B689B691A437B68DB691343D8
:102E1800FA681343FB607B681B68FA681A60786875
:102E280000F060F97B6800229A637B68012283F8CE
:102E380021207B68002283F82020002318461037C1
:102E4800BD4680BD080002401C0002403000024020
:102E580044000240580002406C00024080000240DA
:102E6800CC5F000880B586B000AFF860B9607A60C2
:102E78003B600023FB753B68002B03D03B68B3F530
:102E8800803F04D340F24D112C48FDF76AFCFB68E3
:102E980093F82030012B01D102234AE0FB6801227C
:102EA80083F82020FB6893F82130012B3AD1FB6886
:102EB800022283F82120FB6800229A63FB681B68C2
:102EC8001A68FB681B6822F001021A603B687A687E
:102ED800B968F86800F0D7F8FB68DB6A002B08D0FF
:102EE800FB681B681A68FB681B6842F00E021A60D0
:102EF8000FE0FB681B681A68FB681B6842F00A024F
:102F08001A60FB681B681A68FB681B6822F00402D9
:102F18001A60FB681B681A68FB681B6842F00102AC
:102F28001A6005E0FB68002283F820200223FB7565
:102F3800FB7D18461837BD4680BD00BFCC5F000832
:102F480080B584B000AF78607B68DB6B1B68FB6082
:102F58007B681B681B68BB607B681B6C04229A40FB
:102F6800FB681340002B24D0BB6803F00403002B3C
:102F78001FD07B681B681B6803F02003002B07D158
:102F88007B681B681A687B681B6822F004021A6059
:102F98007B681A6C7B68DB6B042101FA02F25A60C9
:102FA8007B68DB6A002B6AD07B68DB6A78689847A5
:102FB80065E07B681B6C02229A40FB681340002B7B
:102FC8002CD0BB6803F00203002B27D07B681B685A
:102FD8001B6803F02003002B0BD17B681B681A6861
:102FE8007B681B6822F00A021A607B68012283F85A
:102FF80021207B681A6C7B68DB6B022101FA02F2E4
:103008005A607B68002283F820207B689B6A002B2B
:1030180035D07B689B6A7868984730E07B681B6C82
:1030280008229A40FB681340002B28D0BB6803F0A5
:103038000803002B23D07B681B681A687B681B6811
:1030480022F00E021A607B681A6C7B68DB6B012128
:1030580001FA02F25A607B6801229A637B680122B6
:1030680083F821207B68002283F820207B681B6B73
:10307800002B04D07B681B6B78689847FFE700BF7C
:103088001037BD4680BD80B485B000AFF860B96028
:103098007A603B60FB681A6CFB68DB6B012101FA04
:1030A80002F25A60FB681B683A685A60FB685B6802
:1030B800102B08D1FB681B687A689A60FB681B684C
:1030C800BA68DA6007E0FB681B68BA689A60FB6850
:1030D8001B687A68DA6000BF1437BD465DF8047B68
:1030E8007047000080B483B000AF78607B681B68CD
:1030F8001A46094B1344094AA2FB03231B099A00E9
:103108007B681A647B68064ADA6300BF0C37BD46E1
:103118005DF8047B704700BFF8FFFDBFCDCCCCCC79
:103128000000024080B586B000AF786039600023A7
:103138007B617B68B3F1904F13D07B68344A93422C
:103148000FD07B68334A93420BD07B68324A934254
:1031580007D07B68314A934203D0B2213048FDF74B
:1031680000FB3B681B689BB2002B05D03B681B68C3
:103178001B0C1B04002B03D0B3212948FDF7F1FADF
:103188003B685B68002B00F0EE813B685B68012BB5
:1031980000F0E9813B685B68112B00F0E4813B6833
:1031A8005B68022B00F0DF813B685B68122B00F044
:1031B800DA813B685B68B3F5881F00F0D4813B680F
:1031C8005B68B3F5041F00F0CE813B685B68B3F51C
:1031D800441F00F0C8813B685B68B3F5901F00F09E
:1031E800C2813B685B68B3F5081F00F0BC813B688F
:1031F8005B68B3F5481F00F0B6813B685B68032B3A
:1032080000F0B181B4210648FDF7ABFAABE100BF8D
:103218000004004800080048000C0048001400485A
:10322800046000083B681A6801217B6901FA03F30E
:103238001340FB60FB68002B00F092813B685B68E1
:1032480003F00303012B05D03B685B6803F003031D
:10325800022B40D13B68DB68002B0BD03B68DB6856
:10326800012B07D03B68DB68032B03D0C3218348BD
:10327800FDF777FA7B689B683B617B695B000322FB
:1032880002FA03F3DB433A6913403B613B68DA68AF
:103298007B695B0002FA03F33A6913433B617B687D
:1032A8003A699A607B685B683B6101227B6902FA34
:1032B80003F3DB433A6913403B613B685B681B09D6
:1032C80003F001027B6902FA03F33A6913433B6195
:1032D8007B683A695A603B685B6803F00303032B19
:1032E80027D03B689B68002B0BD03B689B68012B61
:1032F80007D03B689B68022B03D0D4215F48FDF7B9
:1033080030FA7B68DB683B617B695B00032202FA69
:1033180003F3DB433A6913403B613B689A687B6976
:103328005B0002FA03F33A6913433B617B683A692D
:10333800DA603B685B6803F00303022B47D17B68C4
:10334800B3F1904F13D07B684D4A93420FD07B68FE
:103358004C4A93420BD07B684B4A934207D07B6818
:103368004A4A934203D0E2214448FDF7FAF93B6800
:103378001B690D2B07D93B681B690F2B03D0E32171
:103388003E48FDF7EEF97B69DA087B68083253F8A6
:1033980022303B617B6903F007039B000F2202FA8E
:1033A80003F3DB433A6913403B613B681A697B6965
:1033B80003F007039B0002FA03F33A6913433B61E6
:1033C8007B69DA087B680832396943F822107B6820
:1033D8001B683B617B695B00032202FA03F3DB4352
:1033E8003A6913403B613B685B6803F003027B6901
:1033F8005B0002FA03F33A6913433B617B683A695D
:103408001A603B685B6803F44033002B00F0A88027
:103418001F4B9B691E4A43F0010393611C4B9B6938
:1034280003F00103BB60BB681A4A7B699B0802333F
:1034380052F823303B617B6903F003039B000F22A2
:1034480002FA03F3DB433A6913403B617B68B3F14B
:10345800904F21D07B680A4A93420DD07B68094A75
:10346800934207D07B68084A934201D1032314E0B2
:10347800052312E0022310E001230EE00460000897
:103488000004004800080048000C004800140048E8
:10349800001002400000014000237A6902F0030294
:1034A800920093403A6913433B6135497B699B0815
:1034B80002333A6941F82320324B1B683B61FB68B1
:1034C800DB433A6913403B613B685B6803F4803334
:1034D800002B03D03A69FB6813433B61294A3B69D7
:1034E8001360284B5B683B61FB68DB433A69134018
:1034F8003B613B685B6803F40033002B03D03A69F7
:10350800FB6813433B611F4A3B6953601D4B9B6833
:103518003B61FB68DB433A6913403B613B685B688E
:1035280003F48013002B03D03A69FB6813433B6113
:10353800144A3B699360134BDB683B61FB68DB43D0
:103548003A6913403B613B685B6803F40013002B46
:1035580003D03A69FB6813433B610A4A3B69D3606D
:103568007B6901337B613B681A687B6922FA03F344
:10357800002B7FF457AE00BF00BF1837BD4680BD93
:10358800000001400004014080B582B000AF7860BF
:103598000B467B8013467B707B88002B04D07B888E
:1035A8001B0C1B04002B04D04FF4D2710D48FDF7FF
:1035B800D8F87B78002B07D07B78012B04D040F219
:1035C800A5110848FDF7CDF87B78002B03D07A8841
:1035D8007B689A6102E07A887B689A6200BF083744
:1035E800BD4680BD0460000880B584B000AF786037
:1035F8000B467B807B88002B04D07B881B0C1B042C
:10360800002B04D04FF4DE710A48FDF7AAF87B6856
:103618005B69FB607A88FB6813401A04FB68D9432E
:103628007B880B401A437B689A6100BF1037BD4600
:1036380080BD00BF0460000880B5ADF5007D00AF17
:1036480007F50073A3F5FE73186007F50073A3F57B
:10365800FE731B68002B02D1012301F09AB907F50C
:103668000073A3F5FE731B681B68002B2CD007F5AD
:103678000073A3F5FE731B681B6803F00103002B9E
:1036880022D107F50073A3F5FE731B681B6803F0CE
:103698000203002B18D107F50073A3F5FE731B680E
:1036A8001B6803F00803002B0ED107F50073A3F580
:1036B800FE731B681B6803F00403002B04D140F25F
:1036C8004B11BA48FDF74DF807F50073A3F5FE73E3
:1036D8001B681B6803F00103002B00F09D8107F5B0
:1036E8000073A3F5FE731B685B68002B16D007F503
:1036F8000073A3F5FE731B685B68B3F5803F0DD0BC
:1037080007F50073A3F5FE731B685B68B3F5A02F7C
:1037180004D040F25111A548FDF723F8A44B5B688B
:1037280003F00C03042B0CD0A14B5B6803F00C03D3
:10373800082B5CD19E4B5B6803F48033B3F5803F64
:1037480055D14FF40033C7F8F031D7F8F03193FA78
:10375800A3F3C7F8EC31D7F8EC31B3FA83F3DBB253
:103768005B09DBB243F00103DBB2012B02D1904BC2
:103778001B6815E04FF40033C7F8E831D7F8E83193
:1037880093FAA3F3C7F8E4314FF40033C7F8E031F4
:10379800D7F8E03193FAA3F3C7F8DC31844B5B6ABE
:1037A8004FF40032C7F8D821D7F8D82192FAA2F2FC
:1037B800C7F8D421D7F8D421B2FA82F2D2B242F0B3
:1037C8002002D2B202F01F02012101FA02F21340D4
:1037D800002B00F0208107F50073A3F5FE731B682A
:1037E8005B68002B40F01781012301F0D2B807F580
:1037F8000073A3F5FE731B685B68B3F5803F06D1C1
:103808006B4B1B686A4A43F48033136036E007F554
:103818000073A3F5FE731B685B68002B0CD1644B27
:103828001B68634A23F480331360614B1B68604A4A
:1038380023F48023136021E007F50073A3F5FE73DA
:103848001B685B68B3F5A02F0CD1594B1B68584A0D
:1038580043F480231360564B1B68554A43F4803366
:1038680013600BE0524B1B68514A23F480331360FA
:103878004F4B1B684E4A23F4802313604C4BDB6A82
:1038880023F00F0207F50073A3F5FE731B689B680E
:1038980047491343CB6207F50073A3F5FE731B6812
:1038A8005B68002B59D0FDF733F9C7F8F8010AE037
:1038B800FDF72EF90246D7F8F831D31A642B02D94E
:1038C800032301F066B84FF40033C7F8D031D7F8B6
:1038D800D03193FAA3F3C7F8CC31D7F8CC31B3FA87
:1038E80083F3DBB25B09DBB243F00103DBB2012BEC
:1038F80002D12F4B1B6815E04FF40033C7F8C831CD
:10390800D7F8C83193FAA3F3C7F8C4314FF400339A
:10391800C7F8C031D7F8C03193FAA3F3C7F8BC3160
:10392800234B5B6A4FF40032C7F8B821D7F8B821A7
:1039380092FAA2F2C7F8B421D7F8B421B2FA82F207
:10394800D2B242F02002D2B202F01F02012101FAE3
:1039580002F21340002BABD05EE0FDF7D9F8C7F8B0
:10396800F8010AE0FDF7D4F80246D7F8F831D31A7F
:10397800642B02D9032301F00CB84FF40033C7F8C5
:10398800B031D7F8B03193FAA3F3C7F8AC31D7F810
:10399800AC31B3FA83F3DBB25B09DBB243F001036A
:1039A800DBB2012B06D1024B1B6819E0406000080E
:1039B800001002404FF40033C7F8A831D7F8A831F7
:1039C80093FAA3F3C7F8A4314FF40033C7F8A03132
:1039D800D7F8A03193FAA3F3C7F89C31C04B5B6AC0
:1039E8004FF40032C7F89821D7F8982192FAA2F23A
:1039F800C7F89421D7F89421B2FA82F2D2B242F0F1
:103A08002002D2B202F01F02012101FA02F2134091
:103A1800002BA7D100E000BF07F50073A3F5FE73E4
:103A28001B681B6803F00203002B00F0A28107F556
:103A38000073A3F5FE731B681B69002B0CD007F5F8
:103A48000073A3F5FE731B681B69012B04D040F2B9
:103A58008911A448FCF785FE07F50073A3F5FE73EA
:103A68001B685B691F2B04D94FF4C5719D48FCF78F
:103A780078FE9B4B5B6803F00C03002B0BD0984B34
:103A88005B6803F00C03082B72D1954B5B6803F459
:103A98008033002B6CD10223C7F89031D7F89031CE
:103AA80093FAA3F3C7F88C31D7F88C31B3FA83F3C0
:103AB800DBB25B09DBB243F00103DBB2012B02D1BD
:103AC800874B1B6813E00223C7F88831D7F8883181
:103AD80093FAA3F3C7F884310223C7F88031D7F8E3
:103AE800803193FAA3F3C7F87C317D4B5B6A0222DD
:103AF800C7F87821D7F8782192FAA2F2C7F874218A
:103B0800D7F87421B2FA82F2D2B242F02002D2B2CD
:103B180002F01F02012101FA02F21340002B0AD021
:103B280007F50073A3F5FE731B681B69012B02D010
:103B3800012300F02EBF6A4B1B6823F0F80207F53B
:103B48000073A3F5FE731B685B69F821C7F8701151
:103B5800D7F8701191FAA1F1C7F86C11D7F86C1168
:103B6800B1FA81F1C9B28B405D4913430B6000E1A2
:103B780007F50073A3F5FE731B681B69002B00F0A3
:103B880088800123C7F86831D7F8683193FAA3F31E
:103B9800C7F86431D7F86431B3FA83F3DBB203F1C1
:103BA800845303F584139B001A4601231360FCF722
:103BB800AFFFC7F8F8010AE0FCF7AAFF0246D7F8FA
:103BC800F831D31A022B02D9032300F0E2BE0223F4
:103BD800C7F86031D7F8603193FAA3F3C7F85C31BE
:103BE800D7F85C31B3FA83F3DBB25B09DBB243F09D
:103BF8000103DBB2012B02D1394B1B6813E002230E
:103C0800C7F85831D7F8583193FAA3F3C7F85431A5
:103C18000223C7F85031D7F8503193FAA3F3C7F805
:103C28004C312F4B5B6A0222C7F84821D7F848214C
:103C380092FAA2F2C7F84421D7F84421B2FA82F2E4
:103C4800D2B242F02002D2B202F01F02012101FAE0
:103C580002F21340002BAFD0214B1B6823F0F8026F
:103C680007F50073A3F5FE731B685B69F821C7F8B5
:103C78004011D7F8401191FAA1F1C7F83C11D7F8D3
:103C88003C11B1FA81F1C9B28B40154913430B605D
:103C98006FE00123C7F83831D7F8383193FAA3F326
:103CA800C7F83431D7F83431B3FA83F3DBB203F110
:103CB800845303F584139B001A4600231360FCF712
:103CC80027FFC7F8F8010FE0FCF722FF0246D7F8F4
:103CD800F831D31A022B07D9032300F05ABE00BFCC
:103CE80000100240406000080223C7F83031D7F8BE
:103CF800303193FAA3F3C7F82C31D7F82C31B3FA43
:103D080083F3DBB25B09DBB243F00103DBB2012BC7
:103D180002D1814B1B6813E00223C7F82831D7F87A
:103D2800283193FAA3F3C7F824310223C7F82031C6
:103D3800D7F8203193FAA3F3C7F81C31764B5B6AA6
:103D48000222C7F81821D7F8182192FAA2F2C7F868
:103D58001421D7F81421B2FA82F2D2B242F020022A
:103D6800D2B202F01F02012101FA02F21340002B25
:103D7800AAD107F50073A3F5FE731B681B6803F04F
:103D88000803002B00F02B8107F50073A3F5FE73E1
:103D98001B689B69002B0CD007F50073A3F5FE7315
:103DA8001B689B69012B04D04FF4E5715B48FCF755
:103DB800D8FC07F50073A3F5FE731B689B69002BFD
:103DC80079D00123C7F81031D7F8103193FAA3F34B
:103DD800C7F80C31D7F80C31B3FA83F3DBB21A46C3
:103DE8004F4B13449B001A4601231360FCF790FEC7
:103DF800C7F8F8010AE0FCF78BFE0246D7F8F8315D
:103E0800D31A022B02D9032300F0C3BD0223C7F83B
:103E18000831D7F8083193FAA3F3C7F8043107F546
:103E28000073A3F5807302221A6007F50073A3F5E7
:103E380080731B6893FAA3F207F50073A3F58273E6
:103E48001A6007F50073A3F5847302221A6007F558
:103E58000073A3F584731B6893FAA3F207F5007344
:103E6800A3F586731A602C4B5A6A07F50073A3F5FD
:103E780088730221196007F50073A3F588731B681E
:103E880093FAA3F107F50073A3F58A73196007F590
:103E98000073A3F58A731B68B3FA83F3DBB243F0AC
:103EA8006003DBB203F01F03012101FA03F313409F
:103EB800002BA0D093E007F50073A3F58C730122C3
:103EC8001A6007F50073A3F58C731B6893FAA3F2C5
:103ED80007F50073A3F58E731A6007F50073A3F551
:103EE8008E731B68B3FA83F3DBB21A460C4B134488
:103EF8009B001A4600231360FCF70AFEC7F8F80176
:103F080010E0FCF705FE0246D7F8F831D31A022B69
:103F180008D9032300F03DBD0010024040600008AE
:103F28002081901007F50073A3F5907302221A60A0
:103F380007F50073A3F590731B6893FAA3F207F5CE
:103F48000073A3F592731A6007F50073A3F59473D1
:103F580002221A6007F50073A3F594731B6893FA9D
:103F6800A3F207F50073A3F596731A6007F50073BB
:103F7800A3F5987302221A6007F50073A3F59873E6
:103F88001B6893FAA3F207F50073A3F59A731A60F6
:103F9800B84B5A6A07F50073A3F59C7302211960A0
:103FA80007F50073A3F59C731B6893FAA3F107F553
:103FB8000073A3F59E73196007F50073A3F59E734C
:103FC8001B68B3FA83F3DBB243F06003DBB203F0A0
:103FD8001F03012101FA03F31340002B91D107F5C8
:103FE8000073A3F5FE731B681B6803F00403002B22
:103FF80000F0C081002387F8FF3107F50073A3F5AF
:10400800FE731B68DB68002B14D007F50073A3F55B
:10401800FE731B68DB68012B0CD007F50073A3F552
:10402800FE731B68DB68052B04D04FF4FB719248C4
:10403800FCF797FB8F4BDB6903F08053002B16D1FD
:104048008C4BDB698B4A43F08053D361894BDB6926
:1040580003F0805207F50073A3F5FC731A6007F5A7
:104068000073A3F5FC731B68012387F8FF31834BAA
:104078001B6803F48073002B1BD1804B1B687F4A9D
:1040880043F480731360FCF743FDC7F8F8010AE0B6
:10409800FCF73EFD0246D7F8F831D31A642B02D953
:1040A800032300F076BC754B1B6803F48073002B68
:1040B800EED007F50073A3F5FE731B68DB68012BD0
:1040C80006D16C4B1B6A6B4A43F00103136235E05F
:1040D80007F50073A3F5FE731B68DB68002B0CD192
:1040E800644B1B6A634A23F001031362614B1B6A2A
:1040F800604A23F00403136220E007F50073A3F578
:10410800FE731B68DB68052B0CD15A4B1B6A594A96
:1041180043F004031362574B1B6A564A43F00103EA
:1041280013620BE0534B1B6A524A23F001031362DC
:10413800504B1B6A4F4A23F00403136207F50073C0
:10414800A3F5FE731B68DB68002B00F08280FCF788
:10415800DFFCC7F8F8010CE0FCF7DAFC0246D7F8F8
:10416800F831D31A41F28832934202D9032300F07E
:1041780010BC07F50073A3F5A07302221A6007F5B7
:104188000073A3F5A0731B6893FAA3F207F50073F5
:10419800A3F5A2731A6007F50073A3F5A4730222AE
:1041A8001A6007F50073A3F5A4731B6893FAA3F2CA
:1041B80007F50073A3F5A6731A6007F50073A3F556
:1041C800A6731B68B3FA83F3DBB25B09DBB243F077
:1041D8000203DBB2022B02D1264B1B6A13E007F560
:1041E8000073A3F5A87302221A6007F50073A3F5FC
:1041F800A8731B6893FAA3F207F50073A3F5AA73D3
:104208001A601C4B5B6A07F50072A2F5AC720221BA
:10421800116007F50072A2F5AC72126892FAA2F169
:1042280007F50072A2F5AE72116007F50072A2F5EB
:10423800AE721268B2FA82F2D2B242F04002D2B240
:1042480002F01F02012101FA02F21340002B83D071
:1042580086E0FCF75DFCC7F8F80111E0FCF758FCB4
:104268000246D7F8F831D31A41F28832934207D977
:1042780003238EE3001002404060000800700040F5
:1042880007F50073A3F5B07302221A6007F50073EF
:10429800A3F5B0731B6893FAA3F207F50073A3F5AF
:1042A800B2731A6007F50073A3F5B47302221A609B
:1042B80007F50073A3F5B4731B6893FAA3F207F527
:1042C8000073A3F5B6731A6007F50073A3F5B67308
:1042D8001B68B3FA83F3DBB25B09DBB243F002037A
:1042E800DBB2022B02D1BB4B1B6A13E007F500734C
:1042F800A3F5B87302221A6007F50073A3F5B87323
:104308001B6893FAA3F207F50073A3F5BA731A6052
:10431800B04B5B6A07F50072A2F5BC72022111600E
:1043280007F50072A2F5BC72126892FAA2F107F5BD
:104338000072A2F5BE72116007F50072A2F5BE7296
:104348001268B2FA82F2D2B242F04002D2B202F05D
:104358001F02012101FA02F21340002B7FF47EAF05
:1043680097F8FF31012B05D19A4BDB69994A23F065
:104378008053D36107F50073A3F5FE731B68DB69EF
:10438800002B14D007F50073A3F5FE731B68DB69D7
:10439800012B0CD007F50073A3F5FE731B68DB69CE
:1043A800022B04D040F23A218B48FCF7DAF907F5E2
:1043B8000073A3F5FE731B68DB69002B00F0E8822D
:1043C800844B5B6803F00C03082B00F0B68207F5FA
:1043D8000073A3F5FE731B68DB69022B40F00782AC
:1043E80007F50073A3F5FE731B681B6A002B0DD03D
:1043F80007F50073A3F5FE731B681B6AB3F5803FCE
:1044080004D040F243217448FCF7ABF907F5007378
:10441800A3F5FE731B685B6A002B00F0838007F529
:104428000073A3F5FE731B685B6AB3F5802F79D020
:1044380007F50073A3F5FE731B685B6AB3F5002FDD
:1044480070D007F50073A3F5FE731B685B6AB3F5BC
:10445800402F67D007F50073A3F5FE731B685B6AEE
:10446800B3F5801F5ED007F50073A3F5FE731B68D4
:104478005B6AB3F5A01F55D007F50073A3F5FE736B
:104488001B685B6AB3F5C01F4CD007F50073A3F532
:10449800FE731B685B6AB3F5E01F43D007F5007332
:1044A800A3F5FE731B685B6AB3F5001F3AD007F5E6
:1044B8000073A3F5FE731B685B6AB3F5101F31D058
:1044C80007F50073A3F5FE731B685B6AB3F5201F3D
:1044D80028D007F50073A3F5FE731B685B6AB3F574
:1044E800301F1FD007F50073A3F5FE731B685B6AC6
:1044F800B3F5401F16D007F50073A3F5FE731B68CC
:104508005B6AB3F5501F0DD007F50073A3F5FE7372
:104518001B685B6AB3F5601F04D04FF411712E4815
:10452800FCF71FF907F50073A3F5C0734FF080720D
:104538001A6007F50073A3F5C0731B6893FAA3F21A
:1045480007F50073A3F5C2731A6007F50073A3F5A6
:10455800C2731B68B3FA83F3DBB203F1845303F528
:1045680084139B001A4600231360FCF7D1FAC7F89E
:10457800F80109E0FCF7CCFA0246D7F8F831D31A6B
:10458800022B01D9032304E207F50073A3F5C473D2
:104598004FF000721A6007F50073A3F5C4731B6827
:1045A80093FAA3F207F50073A3F5C6731A6007F52B
:1045B8000073A3F5C6731B68B3FA83F3DBB25B0918
:1045C800DBB243F00103DBB2012B07D1014B1B68BF
:1045D8002CE000BF001002404060000807F500739F
:1045E800A3F5C8734FF000721A6007F50073A3F5BE
:1045F800C8731B6893FAA3F207F50073A3F5CA738F
:104608001A6007F50073A3F5CC734FF000721A60B7
:1046180007F50073A3F5CC731B6893FAA3F207F5AB
:104628000073A3F5CE731A60C94B5B6A07F5007275
:10463800A2F5D0724FF00071116007F50072A2F573
:10464800D072126892FAA2F107F50072A2F5D2723E
:10465800116007F50072A2F5D2721268B2FA82F2FE
:10466800D2B242F02002D2B202F01F02012101FAB6
:1046780002F21340002B7FF47DAFB54B5B6823F447
:10468800741207F50073A3F5FE731B68596A07F5E2
:104698000073A3F5FE731B681B6A0B43AC491343F5
:1046A8004B6007F50073A3F5D4734FF080721A605E
:1046B80007F50073A3F5D4731B6893FAA3F207F503
:1046C8000073A3F5D6731A6007F50073A3F5D673C4
:1046D8001B68B3FA83F3DBB203F1845303F5841345
:1046E8009B001A4601231360FCF712FAC7F8F80179
:1046F80009E0FCF70DFA0246D7F8F831D31A022B75
:1047080001D9032345E107F50073A3F5D8734FF0EA
:1047180000721A6007F50073A3F5D8731B6893FA43
:10472800A3F207F50073A3F5DA731A6007F50073AF
:10473800A3F5DA731B68B3FA83F3DBB25B09DBB268
:1047480043F00103DBB2012B02D1814B1B6827E048
:1047580007F50073A3F5DC734FF000721A6007F5D4
:104768000073A3F5DC731B6893FAA3F207F50073D3
:10477800A3F5DE731A6007F50073A3F5E0734FF035
:1047880000721A6007F50073A3F5E0731B6893FACB
:10479800A3F207F50073A3F5E2731A606C4B5B6A2A
:1047A80007F50072A2F5E4724FF00071116007F589
:1047B8000072A2F5E472126892FAA2F107F500728B
:1047C800A2F5E672116007F50072A2F5E6721268AA
:1047D800B2FA82F2D2B242F02002D2B202F01F0242
:1047E800012101FA02F21340002B82D0D0E007F534
:1047F8000073A3F5E8734FF080721A6007F5007331
:10480800A3F5E8731B6893FAA3F207F50073A3F501
:10481800EA731A6007F50073A3F5EA731B68B3FA25
:1048280083F3DBB203F1845303F584139B001A4628
:1048380000231360FCF76CF9C7F8F80109E0FCF7EE
:1048480067F90246D7F8F831D31A022B01D90323A6
:104858009FE007F50073A3F5EC734FF000721A6040
:1048680007F50073A3F5EC731B6893FAA3F207F539
:104878000073A3F5EE731A6007F50073A3F5EE73E2
:104888001B68B3FA83F3DBB25B09DBB243F00103C5
:10489800DBB2012B02D12E4B1B6827E007F5007312
:1048A800A3F5F0734FF000721A6007F50073A3F5D3
:1048B800F0731B6893FAA3F207F50073A3F5F2737C
:1048C8001A6007F50073A3F5F4734FF000721A60CD
:1048D80007F50073A3F5F4731B6893FAA3F207F5C1
:1048E8000073A3F5F6731A60194B5B6A07F500723B
:1048F800A2F5F8724FF00071116007F50072A2F589
:10490800F872126892FAA2F107F50072A2F5FA722B
:10491800116007F50072A2F5FA721268B2FA82F213
:10492800D2B242F02002D2B202F01F02012101FAF3
:1049380002F21340002B82D12AE007F50073A3F599
:10494800FE731B68DB69012B04D1012321E000BF42
:1049580000100240114B5B68C7F8F431D7F8F43106
:1049680003F4803207F50073A3F5FE731B681B6A16
:104978009A420BD1D7F8F43103F4701207F500739B
:10498800A3F5FE731B685B6A9A4201D0012300E01D
:104998000023184607F50077BD4680BD0010024089
:1049A80080B59EB000AF7860396000237B677B6874
:1049B800002B01D1012305E27B681B6803F001038A
:1049C800002B16D17B681B6803F00203002B10D163
:1049D8007B681B6803F00403002B0AD17B681B6803
:1049E80003F00803002B04D140F2C3219A48FBF7D7
:1049F800B8FE3B68002B0AD03B68012B07D03B6808
:104A0800022B04D04FF431719348FBF7AAFE934B65
:104A18001B6803F007033A689A4210D98F4B1B684A
:104A280023F007028D493B6813430B608B4B1B68CF
:104A380003F007033A689A4201D00123C2E17B6878
:104A48001B6803F00203002B31D07B689B68002BA6
:104A580024D07B689B68802B20D07B689B68902B38
:104A68001CD07B689B68A02B18D07B689B68B02BF8
:104A780014D07B689B68C02B10D07B689B68D02BB8
:104A88000CD07B689B68E02B08D07B689B68F02B78
:104A980004D040F2DB217048FBF763FE704B5B6883
:104AA80023F0F0027B689B686D4913434B607B6879
:104AB8001B6803F00103002B00F0F5807B685B683E
:104AC800002B0CD07B685B68012B08D07B685B6887
:104AD800022B04D040F2E2215F48FBF742FE7B68DC
:104AE8005B68012B3DD14FF400333B673B6F93FA72
:104AF800A3F3FB66FB6EB3FA83F3DBB25B09DBB2AD
:104B080043F00103DBB2012B02D1554B1B680FE0C8
:104B18004FF40033BB66BB6E93FAA3F37B664FF486
:104B280000333B663B6E93FAA3F3FB654C4B5B6A21
:104B38004FF40032BA65BA6D92FAA2F27A657A6DCC
:104B4800B2FA82F2D2B242F02002D2B202F01F02CE
:104B5800012101FA02F21340002B40F08380012367
:104B680030E17B685B68022B3CD14FF000733B65FA
:104B78003B6D93FAA3F3FB64FB6CB3FA83F3DBB2EC
:104B88005B09DBB243F00103DBB2012B02D1344BEA
:104B98001B680FE04FF00073BB64BB6C93FAA3F380
:104BA8007B644FF000733B643B6C93FAA3F3FB63A5
:104BB8002B4B5B6A4FF00072BA63BA6B92FAA2F29F
:104BC8007A637A6BB2FA82F2D2B242F02002D2B29F
:104BD80002F01F02012101FA02F21340002B41D119
:104BE8000123EFE002233B633B6B93FAA3F3FB62E1
:104BF800FB6AB3FA83F3DBB25B09DBB243F0010370
:104C0800DBB2012B02D1164B1B680DE00223BB62FD
:104C1800BB6A93FAA3F37B6202233B623B6A93FA73
:104C2800A3F3FB610E4B5B6A0222BA61BA6992FA7E
:104C3800A2F27A617A69B2FA82F2D2B242F0200222
:104C4800D2B202F01F02012101FA02F21340002B36
:104C580008D10123B6E000BF4060000800200240F0
:104C680000100240594B5B6823F003027B685B68C5
:104C7800564913434B60FBF74BFF78670AE0FBF795
:104C880047FF02467B6FD31A41F28832934201D91B
:104C9800032397E04D4B5B6803F00C027B685B686D
:104CA8009B009A42EBD14A4B1B6803F007033A6812
:104CB8009A4210D2464B1B6823F0070244493B68CE
:104CC80013430B60424B1B6803F007033A689A4290
:104CD80001D0012376E07B681B6803F00403002BF6
:104CE80025D07B68DB68002B18D07B68DB68B3F5C0
:104CF800806F13D07B68DB68B3F5A06F0ED07B683C
:104D0800DB68B3F5C06F09D07B68DB68B3F5E06F8B
:104D180004D040F21E312F48FBF723FD2B4B5B6874
:104D280023F4E0627B68DB68284913434B607B68A7
:104D38001B6803F00803002B26D07B681B69002B37
:104D480018D07B681B69B3F5806F13D07B681B692B
:104D5800B3F5A06F0ED07B681B69B3F5C06F09D09F
:104D68007B681B69B3F5E06F04D040F22531194820
:104D7800FBF7F7FC154B5B6823F460527B681B69F3
:104D8800DB00124913434B6000F02CF801460F4B2F
:104D98005B6803F0F003F0223A613A6992FAA2F2F2
:104DA800FA60FA68B2FA82F2D2B2D3400A4AD35C05
:104DB80021FA03F3094A1360094B1B681846FBF7ED
:104DC80063FE002318467837BD4680BD00100240B8
:104DD8000020024040600008286100080000002010
:104DE8000400002080B48BB000AF0023FB610023D7
:104DF800BB6100237B6200237B6100233B62294B5C
:104E08005B68FB61FB6903F00C03042B02D0082BE1
:104E180003D03CE0244B3B623CE0FB6903F4701395
:104E28004FF47012BA60BA6892FAA2F27A607A689D
:104E3800B2FA82F2D2B2D3401C4AD35C7B61194BDE
:104E4800DB6A03F00F030F223A613A6992FAA2F281
:104E5800FA60FA68B2FA82F2D2B2D340144AD35C4A
:104E6800BB61FB6903F48033002B08D00E4ABB6991
:104E7800B2FBF3F27B6902FB03F37B6204E07B691C
:104E88000C4A02FB03F37B627B6A3B6202E0064B3F
:104E98003B6200BF3B6A18462C37BD465DF8047B71
:104EA800704700BF0010024000127A0040610008FD
:104EB8005061000800093D0080B400AF034B1B6837
:104EC8001846BD465DF8047B704700BF000000200F
:104ED80080B582B000AFFFF7EFFF01460B4B5B6870
:104EE80003F4E0634FF4E0627A607A6892FAA2F21F
:104EF8003A603A68B2FA82F2D2B2D340044AD35C3A
:104F080021FA03F318460837BD4680BD0010024059
:104F18003861000880B582B000AFFFF7CDFF0146C9
:104F28000B4B5B6803F460534FF460527A607A6805
:104F380092FAA2F23A603A68B2FA82F2D2B2D34056
:104F4800044AD35C21FA03F318460837BD4680BDEE
:104F5800001002403861000880B582B000AF786068
:104F68007B68002B01D10123AFE07B681B68594A9D
:104F7800934227D07B681B68B3F1804F22D07B68AF
:104F88001B68554A93421DD07B681B68534A93425D
:104F980018D07B681B68524A934213D07B681B6801
:104FA800504A93420ED07B681B684F4A934209D0FF
:104FB8007B681B684D4A934204D04FF48D714C486E
:104FC800FBF7CFFB7B689B68002B14D07B689B6842
:104FD800102B10D07B689B68202B0CD07B689B68BB
:104FE800402B08D07B689B68602B04D040F21B11D3
:104FF8003F48FBF7B6FB7B681B69002B0ED07B682C
:105008001B69B3F5807F09D07B681B69B3F5007F06
:1050180004D04FF48E713648FBF7A3FB7B689B697D
:10502800002B08D07B689B69802B04D040F21D11AF
:105038002F48FBF796FB7B6893F83D30DBB2002BDB
:1050480006D17B68002283F83C207868FBF748FC8F
:105058007B68022283F83D207B681A687B680433EA
:105068001946104600F0CEF87B68012283F84820E4
:105078007B68012283F83E207B68012283F83F2069
:105088007B68012283F840207B68012283F8412055
:105098007B68012283F842207B68012283F8432041
:1050A8007B68012283F844207B68012283F845202D
:1050B8007B68012283F846207B68012283F8472019
:1050C8007B68012283F83D20002318460837BD4637
:1050D80080BD00BF002C01400004004000100040CB
:1050E80000140040004001400044014000480140D5
:1050F8007860000880B584B000AF78607B681B6872
:10510800374A934227D07B681B68B3F1804F22D07F
:105118007B681B68334A93421DD07B681B68324A00
:10512800934218D07B681B68304A934213D07B683F
:105138001B682F4A93420ED07B681B682D4A934206
:1051480009D07B681B682C4A934204D040F29B111B
:105158002A48FBF706FB7B6893F83D30DBB2012B4E
:1051680001D0012338E07B68022283F83D207B6868
:105178001B681B4A93420ED07B681B68B3F1804FB3
:1051880009D07B681B68174A934204D07B681B6868
:10519800174A934215D17B681B689A68184B1340CD
:1051A800FB60FB68062B15D0FB68B3F5803F11D078
:1051B8007B681B681A687B681B6842F001021A60EA
:1051C80008E07B681B681A687B681B6842F001026C
:1051D8001A6000E000BF002318461037BD4680BDA6
:1051E800002C014000040040001000400014004062
:1051F8000040014000440140004801407860000838
:105208000700010080B485B000AF786039607B6822
:105218001B68FB607B68324A934207D07B68B3F116
:10522800804F03D07B682F4A934208D1FB6823F054
:105238007003FB603B685B68FA681343FB607B683C
:10524800274A934213D07B68B3F1804F0FD07B6815
:10525800244A93420BD07B68234A934207D07B6849
:10526800224A934203D07B68214A934208D1FB68C3
:1052780023F44073FB603B68DB68FA681343FB6008
:10528800FB6823F080023B685B691343FB607B6823
:10529800FA681A603B689A687B68DA623B681A6841
:1052A8007B689A627B680E4A93420BD07B680E4AF1
:1052B800934207D07B680D4A934203D07B680C4A1F
:1052C800934203D13B681A697B681A637B680122A1
:1052D8005A6100BF1437BD465DF8047B704700BFB4
:1052E800002C0140000400400040014000440140FF
:1052F8000048014080B584B000AF786039607B68B1
:105308001B68864A93421DD07B681B68B3F1804FA7
:1053180018D07B681B68824A934213D07B681B684D
:10532800804A93420ED07B681B687F4A934209D01B
:105338007B681B687D4A934204D040F2B4717C4874
:10534800FBF70FFA3B681B68002B20D03B681B68F3
:10535800102B1CD03B681B68202B18D03B681B689F
:10536800302B14D03B681B68402B10D03B681B685F
:10537800502B0CD03B681B68602B08D03B681B681F
:10538800702B04D040F2B5716948FBF7EAF93B6825
:105398009B68802B08D03B689B68002B04D040F2A8
:1053A800B6716348FBF7DDF97B6893F83C30012B55
:1053B80001D10223ADE07B68012283F83C207B68A1
:1053C800022283F83D207B681B685B68FB607B6872
:1053D8001B689B68BB607B681B68504A934261D11D
:1053E8003B685B68002B54D03B685B68B3F5801F53
:1053F8004FD03B685B68B3F5001F4AD03B685B68D9
:10540800B3F5401F45D03B685B68B3F5800F40D0CB
:105418003B685B68B3F5A00F3BD03B685B68B3F5AE
:10542800C00F36D03B685B68B3F5C00F31D03B681E
:105438005B68B3F5E00F2CD03B685B68B3F5000FF1
:1054480027D03B685B68B3F5100F22D03B685B68D8
:10545800B3F5200F1DD03B685B68B3F5300F18D04B
:105468003B685B68B3F5400F13D03B685B68B3F5E6
:10547800500F0ED03B685B68B3F5600F09D03B68EE
:105488005B68B3F5700F04D040F2C9712848FBF788
:1054980068F9FB6823F47003FB603B685B68FA6893
:1054A8001343FB60FB6823F07003FB603B681B68D9
:1054B800FA681343FB607B681B68FA685A607B686C
:1054C8001B68164A93420ED07B681B68B3F1804F65
:1054D80009D07B681B68124A934204D07B681B681A
:1054E800124A93420CD1BB6823F08003BB603B682F
:1054F8009B68BA681343BB607B681B68BA689A608C
:105508007B68012283F83D207B68002283F83C20D9
:10551800002318461037BD4680BD00BF002C01404F
:10552800000400400010004000140040004001400A
:10553800B060000880B582B000AF78607B68002B4F
:1055480001D101236DE07B689B69002B14D07B6837
:105558001B68364A934223D07B681B68344A9342BF
:105568001ED07B681B68334A934219D04FF496715A
:105578003148FBF7F6F813E07B681B682B4A934227
:105588000ED07B681B682A4A934209D07B681B6847
:10559800284A934204D040F231112748FBF7E1F83A
:1055A8007B689B6F002B06D17B68002283F87420F0
:1055B8007868FBF7E5F97B6824229A677B681B68A3
:1055C8001A687B681B6822F001021A60786800F08C
:1055D80035F80346012B01D1012322E07B685B6A81
:1055E800002B02D0786800F0F1F97B681B685A68D4
:1055F8007B681B6822F490425A607B681B689A6833
:105608007B681B6822F02A029A607B681B681A680C
:105618007B681B6842F001021A60786800F016FB8C
:10562800034618460837BD4680BD00BF0038014014
:105638000044004000480040EC60000880B588B095
:1056480000AF78600023BB777B685B68914A934220
:1056580004D940F63F319048FBF783F87B689B6894
:10566800B3F1805F0DD07B689B68002B09D07B6805
:105678009B68B3F5805F04D04FF434618648FBF72C
:1056880070F87B68DB68B3F5805F12D07B68DB68F5
:10569800002B0ED07B68DB68B3F5405F09D07B68D0
:1056A800DB68B3F5005F04D040F641317A48FBF778
:1056B80058F87B681B6A002B09D07B681B6AB3F516
:1056C800006F04D040F642317348FBF74AF87B6814
:1056D8001B69002B0ED07B681B69B3F5806F09D05E
:1056E8007B681B69B3F5C06F04D040F644316A4843
:1056F800FBF737F87B685B6923F00C03002B03D1B9
:105708007B685B69002B04D140F645316248FBF7A2
:1057180028F87B689B69002B13D07B689B69B3F5DD
:10572800807F0ED07B689B69B3F5007F09D07B68CA
:105738009B69B3F5407F04D040F646315648FBF7E5
:1057480010F87B68DB69002B09D07B68DB69B3F54F
:10575800004F04D040F647314F48FBF702F87B680A
:105768009A687B681B691A437B685B691A437B6884
:10577800DB6913437B617B681B681A68474B1340DE
:105788007A68126879690B4313607B681B685B68E9
:1057980023F440517B68DA687B681B680A435A60C7
:1057A8007B689B697B617B681B6A7A6913437B61B1
:1057B8007B681B689B6823F430617B681B687A6987
:1057C8000A439A607B681B68354A93421FD1354B60
:1057D8001B6B03F00303032B16D801A252F823F026
:1057E800F9570008055800080B580008FF5700082B
:1057F8000023FB771DE00223FB771AE00423FB77E5
:1058080017E00823FB7714E01023FB7711E07B688F
:105818001B68254A934202D10023FB7709E07B6885
:105828001B68224A934202D10023FB7701E0102330
:10583800FB777B68DB69B3F5004F6CD1FB7F082BE6
:1058480038D801A252F823F0755800087D5800088E
:1058580085580008BD5800088B580008BD58000836
:10586800BD580008BD58000893580008FFF730FBE2
:10587800B86124E0FFF74EFBB86120E00C4BBB6138
:105888001DE0FFF7AFFAB86119E04FF40043BB61C0
:1058980015E000BF40548900EC600008F369FFEF91
:1058A8000038014000100240004400400048004019
:1058B80000127A000023BB610123BB7700BFBB69DC
:1058C800002B75D0BB695A007B685B685B081A447B
:1058D8007B685B68B2FBF3F39BB23B613B690F2BC0
:1058E80016D93B69B3F5803F12D23B699BB223F0CE
:1058F8000F03FB813B695B089BB203F007039AB275
:10590800FB891343FB817B681B68FA89DA604FE0E7
:105918000123BB774CE0FB7F082B28D801A252F863
:1059280023F000BF5159000859590008615900086F
:10593800775900086759000877590008775900080F
:10594800775900086F590008FFF7C2FAB86113E0E9
:10595800FFF7E0FAB8610FE01B4BBB610CE0FFF703
:1059680041FAB86108E04FF40043BB6104E000234A
:10597800BB610123BB7700BFBB69002B18D07B68D4
:105988005B685A08BB691A447B685B68B2FBF3F32F
:105998009BB23B613B690F2B08D93B69B3F5803F4C
:1059A80004D27B681B683A69DA6001E00123BB779F
:1059B8007B6800225A667B6800229A66BB7F18467D
:1059C8002037BD4680BD00BF00127A0080B582B086
:1059D80000AF78607B685B6AFF2B04D940F6C8315A
:1059E8009648FAF7BEFE7B685B6A03F00103002B5A
:1059F80018D07B689B6A002B09D07B689B6AB3F53B
:105A0800003F04D040F6CD318C48FAF7AAFE7B68F7
:105A18001B685B6823F400317B689A6A7B681B68A3
:105A28000A435A607B685B6A03F00203002B18D0B4
:105A38007B68DB6A002B09D07B68DB6AB3F5803FA3
:105A480004D040F6D4317D48FAF78BFE7B681B689A
:105A58005B6823F480317B68DA6A7B681B680A43D9
:105A68005A607B685B6A03F00403002B18D07B68DC
:105A78001B6B002B09D07B681B6BB3F5802F04D000
:105A880040F6DB316D48FAF76CFE7B681B685B6893
:105A980023F480217B681A6B7B681B680A435A6071
:105AA8007B685B6A03F00803002B18D07B685B6B8C
:105AB800002B09D07B685B6BB3F5004F04D040F630
:105AC800E2315E48FAF74DFE7B681B685B6823F499
